{
  "contractName": "Voting",
  "abi": [
    {
      "anonymous": false,
      "inputs": [
        {
          "indexed": true,
          "internalType": "address",
          "name": "previousOwner",
          "type": "address"
        },
        {
          "indexed": true,
          "internalType": "address",
          "name": "newOwner",
          "type": "address"
        }
      ],
      "name": "OwnershipTransferred",
      "type": "event"
    },
    {
      "anonymous": false,
      "inputs": [
        {
          "indexed": false,
          "internalType": "uint256",
          "name": "proposalId",
          "type": "uint256"
        }
      ],
      "name": "ProposalRegistered",
      "type": "event"
    },
    {
      "anonymous": false,
      "inputs": [
        {
          "indexed": false,
          "internalType": "address",
          "name": "voter",
          "type": "address"
        },
        {
          "indexed": false,
          "internalType": "uint256",
          "name": "proposalId",
          "type": "uint256"
        }
      ],
      "name": "Voted",
      "type": "event"
    },
    {
      "anonymous": false,
      "inputs": [
        {
          "indexed": false,
          "internalType": "address",
          "name": "voterAddress",
          "type": "address"
        }
      ],
      "name": "VoterRegistered",
      "type": "event"
    },
    {
      "anonymous": false,
      "inputs": [
        {
          "indexed": false,
          "internalType": "enum Voting.WorkflowStatus",
          "name": "previousStatus",
          "type": "uint8"
        },
        {
          "indexed": false,
          "internalType": "enum Voting.WorkflowStatus",
          "name": "newStatus",
          "type": "uint8"
        }
      ],
      "name": "WorkflowStatusChange",
      "type": "event"
    },
    {
      "inputs": [],
      "name": "owner",
      "outputs": [
        {
          "internalType": "address",
          "name": "",
          "type": "address"
        }
      ],
      "stateMutability": "view",
      "type": "function",
      "constant": true
    },
    {
      "inputs": [],
      "name": "renounceOwnership",
      "outputs": [],
      "stateMutability": "nonpayable",
      "type": "function"
    },
    {
      "inputs": [
        {
          "internalType": "address",
          "name": "newOwner",
          "type": "address"
        }
      ],
      "name": "transferOwnership",
      "outputs": [],
      "stateMutability": "nonpayable",
      "type": "function"
    },
    {
      "inputs": [],
      "name": "winningProposalID",
      "outputs": [
        {
          "internalType": "uint256",
          "name": "",
          "type": "uint256"
        }
      ],
      "stateMutability": "view",
      "type": "function",
      "constant": true
    },
    {
      "inputs": [],
      "name": "workflowStatus",
      "outputs": [
        {
          "internalType": "enum Voting.WorkflowStatus",
          "name": "",
          "type": "uint8"
        }
      ],
      "stateMutability": "view",
      "type": "function",
      "constant": true
    },
    {
      "inputs": [
        {
          "internalType": "address",
          "name": "_addr",
          "type": "address"
        }
      ],
      "name": "getVoter",
      "outputs": [
        {
          "components": [
            {
              "internalType": "bool",
              "name": "isRegistered",
              "type": "bool"
            },
            {
              "internalType": "bool",
              "name": "hasVoted",
              "type": "bool"
            },
            {
              "internalType": "uint256",
              "name": "votedProposalId",
              "type": "uint256"
            }
          ],
          "internalType": "struct Voting.Voter",
          "name": "",
          "type": "tuple"
        }
      ],
      "stateMutability": "view",
      "type": "function",
      "constant": true
    },
    {
      "inputs": [
        {
          "internalType": "uint256",
          "name": "_id",
          "type": "uint256"
        }
      ],
      "name": "getOneProposal",
      "outputs": [
        {
          "components": [
            {
              "internalType": "string",
              "name": "description",
              "type": "string"
            },
            {
              "internalType": "uint256",
              "name": "voteCount",
              "type": "uint256"
            }
          ],
          "internalType": "struct Voting.Proposal",
          "name": "",
          "type": "tuple"
        }
      ],
      "stateMutability": "view",
      "type": "function",
      "constant": true
    },
    {
      "inputs": [
        {
          "internalType": "address",
          "name": "_addr",
          "type": "address"
        }
      ],
      "name": "addVoter",
      "outputs": [],
      "stateMutability": "nonpayable",
      "type": "function"
    },
    {
      "inputs": [
        {
          "internalType": "string",
          "name": "_desc",
          "type": "string"
        }
      ],
      "name": "addProposal",
      "outputs": [],
      "stateMutability": "nonpayable",
      "type": "function"
    },
    {
      "inputs": [
        {
          "internalType": "uint256",
          "name": "_id",
          "type": "uint256"
        }
      ],
      "name": "setVote",
      "outputs": [],
      "stateMutability": "nonpayable",
      "type": "function"
    },
    {
      "inputs": [],
      "name": "startProposalsRegistering",
      "outputs": [],
      "stateMutability": "nonpayable",
      "type": "function"
    },
    {
      "inputs": [],
      "name": "endProposalsRegistering",
      "outputs": [],
      "stateMutability": "nonpayable",
      "type": "function"
    },
    {
      "inputs": [],
      "name": "startVotingSession",
      "outputs": [],
      "stateMutability": "nonpayable",
      "type": "function"
    },
    {
      "inputs": [],
      "name": "endVotingSession",
      "outputs": [],
      "stateMutability": "nonpayable",
      "type": "function"
    },
    {
      "inputs": [],
      "name": "tallyVotes",
      "outputs": [],
      "stateMutability": "nonpayable",
      "type": "function"
    }
  ],
  "bytecode": "0x60806040523480156200001157600080fd5b5062000032620000266200003860201b60201c565b6200004060201b60201c565b62000104565b600033905090565b60008060009054906101000a900473ffffffffffffffffffffffffffffffffffffffff169050816000806101000a81548173ffffffffffffffffffffffffffffffffffffffff021916908373ffffffffffffffffffffffffffffffffffffffff1602179055508173ffffffffffffffffffffffffffffffffffffffff168173ffffffffffffffffffffffffffffffffffffffff167f8be0079c531659141344cd1fd0a4f28419497f9722a3daafe3b4186f6b6457e060405160405180910390a35050565b61257380620001146000396000f3fe608060405234801561001057600080fd5b50600436106100f55760003560e01c8063a7bfab1611610097578063d4f50f9811610066578063d4f50f98146101ee578063ee74c6781461021e578063f2fde38b14610228578063f4ab9adf14610244576100f5565b8063a7bfab16146101b2578063bdc01431146101bc578063c7038a4e146101da578063c88af42f146101e4576100f5565b8063715018a6116100d3578063715018a61461013c5780638da5cb5b14610146578063a1edffa214610164578063a2788cce14610182576100f5565b8063230796ae146100fa5780632fdae3c514610116578063378a217814610132575b600080fd5b610114600480360381019061010f919061174c565b610260565b005b610130600480360381019061012b91906118bf565b61055c565b005b61013a61079f565b005b610144610980565b005b61014e610a08565b60405161015b9190611949565b60405180910390f35b61016c610a31565b60405161017991906119db565b60405180910390f35b61019c6004803603810190610197919061174c565b610a44565b6040516101a99190611aca565b60405180910390f35b6101ba610bab565b005b6101c4610d05565b6040516101d19190611afb565b60405180910390f35b6101e2610d0b565b005b6101ec610e65565b005b61020860048036038101906102039190611b42565b610fbe565b6040516102159190611bcc565b60405180910390f35b6102266110e6565b005b610242600480360381019061023d9190611b42565b611240565b005b61025e60048036038101906102599190611b42565b611337565b005b600460003373ffffffffffffffffffffffffffffffffffffffff1673ffffffffffffffffffffffffffffffffffffffff16815260200190815260200160002060000160009054906101000a900460ff166102ef576040517f08c379a00000000000000000000000000000000000000000000000000000000081526004016102e690611c44565b60405180910390fd5b6003600581111561030357610302611964565b5b600260009054906101000a900460ff16600581111561032557610324611964565b5b14610365576040517f08c379a000000000000000000000000000000000000000000000000000000000815260040161035c90611cd6565b60405180910390fd5b60011515600460003373ffffffffffffffffffffffffffffffffffffffff1673ffffffffffffffffffffffffffffffffffffffff16815260200190815260200160002060000160019054906101000a900460ff161515036103fb576040517f08c379a00000000000000000000000000000000000000000000000000000000081526004016103f290611d42565b60405180910390fd5b600380549050811115610443576040517f08c379a000000000000000000000000000000000000000000000000000000000815260040161043a90611dae565b60405180910390fd5b80600460003373ffffffffffffffffffffffffffffffffffffffff1673ffffffffffffffffffffffffffffffffffffffff168152602001908152602001600020600101819055506001600460003373ffffffffffffffffffffffffffffffffffffffff1673ffffffffffffffffffffffffffffffffffffffff16815260200190815260200160002060000160016101000a81548160ff021916908315150217905550600381815481106104f9576104f8611dce565b5b9060005260206000209060020201600101600081548092919061051b90611e2c565b91905055507f4d99b957a2bc29a30ebd96a7be8e68fe50a3c701db28a91436490b7d53870ca43382604051610551929190611e74565b60405180910390a150565b600460003373ffffffffffffffffffffffffffffffffffffffff1673ffffffffffffffffffffffffffffffffffffffff16815260200190815260200160002060000160009054906101000a900460ff166105eb576040517f08c379a00000000000000000000000000000000000000000000000000000000081526004016105e290611c44565b60405180910390fd5b600160058111156105ff576105fe611964565b5b600260009054906101000a900460ff16600581111561062157610620611964565b5b14610661576040517f08c379a000000000000000000000000000000000000000000000000000000000815260040161065890611ee9565b60405180910390fd5b60405160200161067090611f2f565b60405160208183030381529060405280519060200120816040516020016106979190611f88565b60405160208183030381529060405280519060200120036106ed576040517f08c379a00000000000000000000000000000000000000000000000000000000081526004016106e49061201c565b60405180910390fd5b6106f5611620565b8181600001819052506003819080600181540180825580915050600190039060005260206000209060020201600090919091909150600082015181600001908051906020019061074692919061163a565b506020820151816001015550507f92e393e9b54e2f801d3ea4beb0c5e71a21cc34a5d34b77d0fb8a3aa1650dc18f6001600380549050610786919061203c565b6040516107939190611afb565b60405180910390a15050565b6107a7611554565b73ffffffffffffffffffffffffffffffffffffffff166107c5610a08565b73ffffffffffffffffffffffffffffffffffffffff161461081b576040517f08c379a0000000000000000000000000000000000000000000000000000000008152600401610812906120bc565b60405180910390fd5b6004600581111561082f5761082e611964565b5b600260009054906101000a900460ff16600581111561085157610850611964565b5b14610891576040517f08c379a00000000000000000000000000000000000000000000000000000000081526004016108889061214e565b60405180910390fd5b600080600090505b60038054905081101561090f57600382815481106108ba576108b9611dce565b5b906000526020600020906002020160010154600382815481106108e0576108df611dce565b5b90600052602060002090600202016001015411156108fc578091505b808061090790611e2c565b915050610899565b50806001819055506005600260006101000a81548160ff0219169083600581111561093d5761093c611964565b5b02179055507f0a97a4ee45751e2abf3e4fc8946939630b11b371ea8ae39ccdc3056e98f5cc3f6004600560405161097592919061216e565b60405180910390a150565b610988611554565b73ffffffffffffffffffffffffffffffffffffffff166109a6610a08565b73ffffffffffffffffffffffffffffffffffffffff16146109fc576040517f08c379a00000000000000000000000000000000000000000000000000000000081526004016109f3906120bc565b60405180910390fd5b610a06600061155c565b565b60008060009054906101000a900473ffffffffffffffffffffffffffffffffffffffff16905090565b600260009054906101000a900460ff1681565b610a4c611620565b600460003373ffffffffffffffffffffffffffffffffffffffff1673ffffffffffffffffffffffffffffffffffffffff16815260200190815260200160002060000160009054906101000a900460ff16610adb576040517f08c379a0000000000000000000000000000000000000000000000000000000008152600401610ad290611c44565b60405180910390fd5b60038281548110610aef57610aee611dce565b5b9060005260206000209060020201604051806040016040529081600082018054610b18906121c6565b80601f0160208091040260200160405190810160405280929190818152602001828054610b44906121c6565b8015610b915780601f10610b6657610100808354040283529160200191610b91565b820191906000526020600020905b815481529060010190602001808311610b7457829003601f168201915b505050505081526020016001820154815250509050919050565b610bb3611554565b73ffffffffffffffffffffffffffffffffffffffff16610bd1610a08565b73ffffffffffffffffffffffffffffffffffffffff1614610c27576040517f08c379a0000000000000000000000000000000000000000000000000000000008152600401610c1e906120bc565b60405180910390fd5b60036005811115610c3b57610c3a611964565b5b600260009054906101000a900460ff166005811115610c5d57610c5c611964565b5b14610c9d576040517f08c379a0000000000000000000000000000000000000000000000000000000008152600401610c9490611cd6565b60405180910390fd5b6004600260006101000a81548160ff02191690836005811115610cc357610cc2611964565b5b02179055507f0a97a4ee45751e2abf3e4fc8946939630b11b371ea8ae39ccdc3056e98f5cc3f60036004604051610cfb92919061216e565b60405180910390a1565b60015481565b610d13611554565b73ffffffffffffffffffffffffffffffffffffffff16610d31610a08565b73ffffffffffffffffffffffffffffffffffffffff1614610d87576040517f08c379a0000000000000000000000000000000000000000000000000000000008152600401610d7e906120bc565b60405180910390fd5b60006005811115610d9b57610d9a611964565b5b600260009054906101000a900460ff166005811115610dbd57610dbc611964565b5b14610dfd576040517f08c379a0000000000000000000000000000000000000000000000000000000008152600401610df490612269565b60405180910390fd5b6001600260006101000a81548160ff02191690836005811115610e2357610e22611964565b5b02179055507f0a97a4ee45751e2abf3e4fc8946939630b11b371ea8ae39ccdc3056e98f5cc3f60006001604051610e5b92919061216e565b60405180910390a1565b610e6d611554565b73ffffffffffffffffffffffffffffffffffffffff16610e8b610a08565b73ffffffffffffffffffffffffffffffffffffffff1614610ee1576040517f08c379a0000000000000000000000000000000000000000000000000000000008152600401610ed8906120bc565b60405180910390fd5b60016005811115610ef557610ef4611964565b5b600260009054906101000a900460ff166005811115610f1757610f16611964565b5b14610f57576040517f08c379a0000000000000000000000000000000000000000000000000000000008152600401610f4e906122fb565b60405180910390fd5b60028060006101000a81548160ff02191690836005811115610f7c57610f7b611964565b5b02179055507f0a97a4ee45751e2abf3e4fc8946939630b11b371ea8ae39ccdc3056e98f5cc3f60016002604051610fb492919061216e565b60405180910390a1565b610fc66116c0565b600460003373ffffffffffffffffffffffffffffffffffffffff1673ffffffffffffffffffffffffffffffffffffffff16815260200190815260200160002060000160009054906101000a900460ff16611055576040517f08c379a000000000000000000000000000000000000000000000000000000000815260040161104c90611c44565b60405180910390fd5b600460008373ffffffffffffffffffffffffffffffffffffffff1673ffffffffffffffffffffffffffffffffffffffff1681526020019081526020016000206040518060600160405290816000820160009054906101000a900460ff161515151581526020016000820160019054906101000a900460ff161515151581526020016001820154815250509050919050565b6110ee611554565b73ffffffffffffffffffffffffffffffffffffffff1661110c610a08565b73ffffffffffffffffffffffffffffffffffffffff1614611162576040517f08c379a0000000000000000000000000000000000000000000000000000000008152600401611159906120bc565b60405180910390fd5b6002600581111561117657611175611964565b5b600260009054906101000a900460ff16600581111561119857611197611964565b5b146111d8576040517f08c379a00000000000000000000000000000000000000000000000000000000081526004016111cf9061238d565b60405180910390fd5b6003600260006101000a81548160ff021916908360058111156111fe576111fd611964565b5b02179055507f0a97a4ee45751e2abf3e4fc8946939630b11b371ea8ae39ccdc3056e98f5cc3f6002600360405161123692919061216e565b60405180910390a1565b611248611554565b73ffffffffffffffffffffffffffffffffffffffff16611266610a08565b73ffffffffffffffffffffffffffffffffffffffff16146112bc576040517f08c379a00000000000000000000000000000000000000000000000000000000081526004016112b3906120bc565b60405180910390fd5b600073ffffffffffffffffffffffffffffffffffffffff168173ffffffffffffffffffffffffffffffffffffffff160361132b576040517f08c379a00000000000000000000000000000000000000000000000000000000081526004016113229061241f565b60405180910390fd5b6113348161155c565b50565b61133f611554565b73ffffffffffffffffffffffffffffffffffffffff1661135d610a08565b73ffffffffffffffffffffffffffffffffffffffff16146113b3576040517f08c379a00000000000000000000000000000000000000000000000000000000081526004016113aa906120bc565b60405180910390fd5b600060058111156113c7576113c6611964565b5b600260009054906101000a900460ff1660058111156113e9576113e8611964565b5b14611429576040517f08c379a0000000000000000000000000000000000000000000000000000000008152600401611420906124b1565b60405180910390fd5b60011515600460008373ffffffffffffffffffffffffffffffffffffffff1673ffffffffffffffffffffffffffffffffffffffff16815260200190815260200160002060000160009054906101000a900460ff161515036114bf576040517f08c379a00000000000000000000000000000000000000000000000000000000081526004016114b69061251d565b60405180910390fd5b6001600460008373ffffffffffffffffffffffffffffffffffffffff1673ffffffffffffffffffffffffffffffffffffffff16815260200190815260200160002060000160006101000a81548160ff0219169083151502179055507fb6be2187d059cc2a55fe29e0e503b566e1e0f8c8780096e185429350acffd3dd816040516115499190611949565b60405180910390a150565b600033905090565b60008060009054906101000a900473ffffffffffffffffffffffffffffffffffffffff169050816000806101000a81548173ffffffffffffffffffffffffffffffffffffffff021916908373ffffffffffffffffffffffffffffffffffffffff1602179055508173ffffffffffffffffffffffffffffffffffffffff168173ffffffffffffffffffffffffffffffffffffffff167f8be0079c531659141344cd1fd0a4f28419497f9722a3daafe3b4186f6b6457e060405160405180910390a35050565b604051806040016040528060608152602001600081525090565b828054611646906121c6565b90600052602060002090601f01602090048101928261166857600085556116af565b82601f1061168157805160ff19168380011785556116af565b828001600101855582156116af579182015b828111156116ae578251825591602001919060010190611693565b5b5090506116bc91906116e5565b5090565b6040518060600160405280600015158152602001600015158152602001600081525090565b5b808211156116fe5760008160009055506001016116e6565b5090565b6000604051905090565b600080fd5b600080fd5b6000819050919050565b61172981611716565b811461173457600080fd5b50565b60008135905061174681611720565b92915050565b6000602082840312156117625761176161170c565b5b600061177084828501611737565b91505092915050565b600080fd5b600080fd5b6000601f19601f8301169050919050565b7f4e487b7100000000000000000000000000000000000000000000000000000000600052604160045260246000fd5b6117cc82611783565b810181811067ffffffffffffffff821117156117eb576117ea611794565b5b80604052505050565b60006117fe611702565b905061180a82826117c3565b919050565b600067ffffffffffffffff82111561182a57611829611794565b5b61183382611783565b9050602081019050919050565b82818337600083830152505050565b600061186261185d8461180f565b6117f4565b90508281526020810184848401111561187e5761187d61177e565b5b611889848285611840565b509392505050565b600082601f8301126118a6576118a5611779565b5b81356118b684826020860161184f565b91505092915050565b6000602082840312156118d5576118d461170c565b5b600082013567ffffffffffffffff8111156118f3576118f2611711565b5b6118ff84828501611891565b91505092915050565b600073ffffffffffffffffffffffffffffffffffffffff82169050919050565b600061193382611908565b9050919050565b61194381611928565b82525050565b600060208201905061195e600083018461193a565b92915050565b7f4e487b7100000000000000000000000000000000000000000000000000000000600052602160045260246000fd5b600681106119a4576119a3611964565b5b50565b60008190506119b582611993565b919050565b60006119c5826119a7565b9050919050565b6119d5816119ba565b82525050565b60006020820190506119f060008301846119cc565b92915050565b600081519050919050565b600082825260208201905092915050565b60005b83811015611a30578082015181840152602081019050611a15565b83811115611a3f576000848401525b50505050565b6000611a50826119f6565b611a5a8185611a01565b9350611a6a818560208601611a12565b611a7381611783565b840191505092915050565b611a8781611716565b82525050565b60006040830160008301518482036000860152611aaa8282611a45565b9150506020830151611abf6020860182611a7e565b508091505092915050565b60006020820190508181036000830152611ae48184611a8d565b905092915050565b611af581611716565b82525050565b6000602082019050611b106000830184611aec565b92915050565b611b1f81611928565b8114611b2a57600080fd5b50565b600081359050611b3c81611b16565b92915050565b600060208284031215611b5857611b5761170c565b5b6000611b6684828501611b2d565b91505092915050565b60008115159050919050565b611b8481611b6f565b82525050565b606082016000820151611ba06000850182611b7b565b506020820151611bb36020850182611b7b565b506040820151611bc66040850182611a7e565b50505050565b6000606082019050611be16000830184611b8a565b92915050565b600082825260208201905092915050565b7f596f75277265206e6f74206120766f7465720000000000000000000000000000600082015250565b6000611c2e601283611be7565b9150611c3982611bf8565b602082019050919050565b60006020820190508181036000830152611c5d81611c21565b9050919050565b7f566f74696e672073657373696f6e20686176656e74207374617274656420796560008201527f7400000000000000000000000000000000000000000000000000000000000000602082015250565b6000611cc0602183611be7565b9150611ccb82611c64565b604082019050919050565b60006020820190508181036000830152611cef81611cb3565b9050919050565b7f596f75206861766520616c726561647920766f74656400000000000000000000600082015250565b6000611d2c601683611be7565b9150611d3782611cf6565b602082019050919050565b60006020820190508181036000830152611d5b81611d1f565b9050919050565b7f50726f706f73616c206e6f7420666f756e640000000000000000000000000000600082015250565b6000611d98601283611be7565b9150611da382611d62565b602082019050919050565b60006020820190508181036000830152611dc781611d8b565b9050919050565b7f4e487b7100000000000000000000000000000000000000000000000000000000600052603260045260246000fd5b7f4e487b7100000000000000000000000000000000000000000000000000000000600052601160045260246000fd5b6000611e3782611716565b91507fffffffffffffffffffffffffffffffffffffffffffffffffffffffffffffffff8203611e6957611e68611dfd565b5b600182019050919050565b6000604082019050611e89600083018561193a565b611e966020830184611aec565b9392505050565b7f50726f706f73616c7320617265206e6f7420616c6c6f77656420796574000000600082015250565b6000611ed3601d83611be7565b9150611ede82611e9d565b602082019050919050565b60006020820190508181036000830152611f0281611ec6565b9050919050565b50565b6000611f19600083611be7565b9150611f2482611f09565b600082019050919050565b60006020820190508181036000830152611f4881611f0c565b9050919050565b6000611f5a826119f6565b611f648185611be7565b9350611f74818560208601611a12565b611f7d81611783565b840191505092915050565b60006020820190508181036000830152611fa28184611f4f565b905092915050565b7f566f7573206e6520706f7576657a20706173206e65207269656e2070726f706f60008201527f7365720000000000000000000000000000000000000000000000000000000000602082015250565b6000612006602383611be7565b915061201182611faa565b604082019050919050565b6000602082019050818103600083015261203581611ff9565b9050919050565b600061204782611716565b915061205283611716565b92508282101561206557612064611dfd565b5b828203905092915050565b7f4f776e61626c653a2063616c6c6572206973206e6f7420746865206f776e6572600082015250565b60006120a6602083611be7565b91506120b182612070565b602082019050919050565b600060208201905081810360008301526120d581612099565b9050919050565b7f43757272656e7420737461747573206973206e6f7420766f74696e672073657360008201527f73696f6e20656e64656400000000000000000000000000000000000000000000602082015250565b6000612138602a83611be7565b9150612143826120dc565b604082019050919050565b600060208201905081810360008301526121678161212b565b9050919050565b600060408201905061218360008301856119cc565b61219060208301846119cc565b9392505050565b7f4e487b7100000000000000000000000000000000000000000000000000000000600052602260045260246000fd5b600060028204905060018216806121de57607f821691505b6020821081036121f1576121f0612197565b5b50919050565b7f5265676973746572696e672070726f706f73616c732063616e7420626520737460008201527f6172746564206e6f770000000000000000000000000000000000000000000000602082015250565b6000612253602983611be7565b915061225e826121f7565b604082019050919050565b6000602082019050818103600083015261228281612246565b9050919050565b7f5265676973746572696e672070726f706f73616c7320686176656e742073746160008201527f7274656420796574000000000000000000000000000000000000000000000000602082015250565b60006122e5602883611be7565b91506122f082612289565b604082019050919050565b60006020820190508181036000830152612314816122d8565b9050919050565b7f5265676973746572696e672070726f706f73616c73207068617365206973206e60008201527f6f742066696e6973686564000000000000000000000000000000000000000000602082015250565b6000612377602b83611be7565b91506123828261231b565b604082019050919050565b600060208201905081810360008301526123a68161236a565b9050919050565b7f4f776e61626c653a206e6577206f776e657220697320746865207a65726f206160008201527f6464726573730000000000000000000000000000000000000000000000000000602082015250565b6000612409602683611be7565b9150612414826123ad565b604082019050919050565b60006020820190508181036000830152612438816123fc565b9050919050565b7f566f7465727320726567697374726174696f6e206973206e6f74206f70656e2060008201527f7965740000000000000000000000000000000000000000000000000000000000602082015250565b600061249b602383611be7565b91506124a68261243f565b604082019050919050565b600060208201905081810360008301526124ca8161248e565b9050919050565b7f416c726561647920726567697374657265640000000000000000000000000000600082015250565b6000612507601283611be7565b9150612512826124d1565b602082019050919050565b60006020820190508181036000830152612536816124fa565b905091905056fea26469706673582212208daea0a9237a1a75e0bc8ec6db93d7de78f9ad3e1d3d31cf7df8e8ca80c3faa264736f6c634300080e0033",
  "immutableReferences": {},
  "source": "// SPDX-License-Identifier: MIT\r\n\r\npragma solidity 0.8.14;\r\nimport \"@openzeppelin/contracts/access/Ownable.sol\";\r\n\r\n\r\ncontract Voting is Ownable {\r\n\r\n    // arrays for draw, uint for single\r\n    // uint[] winningProposalsID;\r\n    // Proposal[] public winningProposals;\r\n    uint public winningProposalID;\r\n    \r\n    struct Voter {\r\n        bool isRegistered;\r\n        bool hasVoted;\r\n        uint votedProposalId;\r\n    }\r\n\r\n    struct Proposal {\r\n        string description;\r\n        uint voteCount;\r\n    }\r\n\r\n    enum  WorkflowStatus {\r\n        RegisteringVoters,\r\n        ProposalsRegistrationStarted,\r\n        ProposalsRegistrationEnded,\r\n        VotingSessionStarted,\r\n        VotingSessionEnded,\r\n        VotesTallied\r\n    }\r\n\r\n    WorkflowStatus public workflowStatus;\r\n    Proposal[] proposalsArray;\r\n    mapping (address => Voter) voters;\r\n\r\n\r\n    event VoterRegistered(address voterAddress); \r\n    event WorkflowStatusChange(WorkflowStatus previousStatus, WorkflowStatus newStatus);\r\n    event ProposalRegistered(uint proposalId);\r\n    event Voted (address voter, uint proposalId);\r\n\r\n    modifier onlyVoters() {\r\n        require(voters[msg.sender].isRegistered, \"You're not a voter\");\r\n        _;\r\n    }\r\n    \r\n    // on peut faire un modifier pour les tats\r\n\r\n    // ::::::::::::: GETTERS ::::::::::::: //\r\n\r\n    function getVoter(address _addr) external onlyVoters view returns (Voter memory) {\r\n        return voters[_addr];\r\n    }\r\n    \r\n    function getOneProposal(uint _id) external onlyVoters view returns (Proposal memory) {\r\n        return proposalsArray[_id];\r\n    }\r\n\r\n \r\n    // ::::::::::::: REGISTRATION ::::::::::::: // \r\n\r\n    function addVoter(address _addr) external onlyOwner {\r\n        require(workflowStatus == WorkflowStatus.RegisteringVoters, 'Voters registration is not open yet');\r\n        require(voters[_addr].isRegistered != true, 'Already registered');\r\n    \r\n        voters[_addr].isRegistered = true;\r\n        emit VoterRegistered(_addr);\r\n    }\r\n \r\n    /* facultatif\r\n     * function deleteVoter(address _addr) external onlyOwner {\r\n     *   require(workflowStatus == WorkflowStatus.RegisteringVoters, 'Voters registration is not open yet');\r\n     *   require(voters[_addr].isRegistered == true, 'Not registered.');\r\n     *   voters[_addr].isRegistered = false;\r\n     *  emit VoterRegistered(_addr);\r\n    }*/\r\n\r\n    // ::::::::::::: PROPOSAL ::::::::::::: // \r\n\r\n    function addProposal(string memory _desc) external onlyVoters {\r\n        require(workflowStatus == WorkflowStatus.ProposalsRegistrationStarted, 'Proposals are not allowed yet');\r\n        require(keccak256(abi.encode(_desc)) != keccak256(abi.encode(\"\")), 'Vous ne pouvez pas ne rien proposer'); // facultatif\r\n        // voir que desc est different des autres\r\n\r\n        Proposal memory proposal;\r\n        proposal.description = _desc;\r\n        proposalsArray.push(proposal);\r\n        emit ProposalRegistered(proposalsArray.length-1);\r\n    }\r\n\r\n    // ::::::::::::: VOTE ::::::::::::: //\r\n\r\n    function setVote( uint _id) external onlyVoters {\r\n        require(workflowStatus == WorkflowStatus.VotingSessionStarted, 'Voting session havent started yet');\r\n        require(voters[msg.sender].hasVoted != true, 'You have already voted');\r\n        require(_id <= proposalsArray.length, 'Proposal not found'); // pas oblig, et pas besoin du >0 car uint\r\n\r\n        voters[msg.sender].votedProposalId = _id;\r\n        voters[msg.sender].hasVoted = true;\r\n        proposalsArray[_id].voteCount++;\r\n\r\n        emit Voted(msg.sender, _id);\r\n    }\r\n\r\n    // ::::::::::::: STATE ::::::::::::: //\r\n\r\n    /* on pourrait factoriser tout a: par exemple:\r\n    *\r\n    *  modifier checkWorkflowStatus(uint  _num) {\r\n    *    require (workflowStatus=WorkflowStatus(uint(_num)-1), \"bad workflowstatus\");\r\n    *    require (_num != 5, \"il faut lancer tally votes\");\r\n    *    _;\r\n    *  }\r\n    *\r\n    *  function setWorkflowStatus(uint _num) public checkWorkflowStatus(_num) onlyOwner {\r\n    *    WorkflowStatus old = workflowStatus;\r\n    *    workflowStatus = WorkflowStatus(_num);\r\n    *    emit WorkflowStatusChange(old, workflowStatus);\r\n    *   } \r\n    *\r\n    *  ou plus simplement:\r\n    *  function nextWorkflowStatus() onlyOwner{\r\n    *    require (uint(workflowStatus)!=4, \"il faut lancer tallyvotes\");\r\n    *    WorkflowStatus old = workflowStatus;\r\n    *    workflowStatus= WorkflowStatus(uint (workflowStatus) + 1);\r\n    *    emit WorkflowStatusChange(old, workflowStatus);\r\n    *  }\r\n    *\r\n    */ \r\n\r\n\r\n    function startProposalsRegistering() external onlyOwner {\r\n        require(workflowStatus == WorkflowStatus.RegisteringVoters, 'Registering proposals cant be started now');\r\n        workflowStatus = WorkflowStatus.ProposalsRegistrationStarted;\r\n        emit WorkflowStatusChange(WorkflowStatus.RegisteringVoters, WorkflowStatus.ProposalsRegistrationStarted);\r\n    }\r\n\r\n    function endProposalsRegistering() external onlyOwner {\r\n        require(workflowStatus == WorkflowStatus.ProposalsRegistrationStarted, 'Registering proposals havent started yet');\r\n        workflowStatus = WorkflowStatus.ProposalsRegistrationEnded;\r\n        emit WorkflowStatusChange(WorkflowStatus.ProposalsRegistrationStarted, WorkflowStatus.ProposalsRegistrationEnded);\r\n    }\r\n\r\n    function startVotingSession() external onlyOwner {\r\n        require(workflowStatus == WorkflowStatus.ProposalsRegistrationEnded, 'Registering proposals phase is not finished');\r\n        workflowStatus = WorkflowStatus.VotingSessionStarted;\r\n        emit WorkflowStatusChange(WorkflowStatus.ProposalsRegistrationEnded, WorkflowStatus.VotingSessionStarted);\r\n    }\r\n\r\n    function endVotingSession() external onlyOwner {\r\n        require(workflowStatus == WorkflowStatus.VotingSessionStarted, 'Voting session havent started yet');\r\n        workflowStatus = WorkflowStatus.VotingSessionEnded;\r\n        emit WorkflowStatusChange(WorkflowStatus.VotingSessionStarted, WorkflowStatus.VotingSessionEnded);\r\n    }\r\n\r\n    /* function tallyVotesDraw() external onlyOwner {\r\n       require(workflowStatus == WorkflowStatus.VotingSessionEnded, \"Current status is not voting session ended\");\r\n        uint highestCount;\r\n        uint[5]memory winners; // egalite entre 5 personnes max\r\n        uint nbWinners;\r\n        for (uint i = 0; i < proposalsArray.length; i++) {\r\n            if (proposalsArray[i].voteCount == highestCount) {\r\n                winners[nbWinners]=i;\r\n                nbWinners++;\r\n            }\r\n            if (proposalsArray[i].voteCount > highestCount) {\r\n                delete winners;\r\n                winners[0]= i;\r\n                highestCount = proposalsArray[i].voteCount;\r\n                nbWinners=1;\r\n            }\r\n        }\r\n        for(uint j=0;j<nbWinners;j++){\r\n            winningProposalsID.push(winners[j]);\r\n            winningProposals.push(proposalsArray[winners[j]]);\r\n        }\r\n        workflowStatus = WorkflowStatus.VotesTallied;\r\n        emit WorkflowStatusChange(WorkflowStatus.VotingSessionEnded, WorkflowStatus.VotesTallied);\r\n    } */\r\n\r\n   function tallyVotes() external onlyOwner {\r\n       require(workflowStatus == WorkflowStatus.VotingSessionEnded, \"Current status is not voting session ended\");\r\n       uint _winningProposalId;\r\n      for (uint256 p = 0; p < proposalsArray.length; p++) {\r\n           if (proposalsArray[p].voteCount > proposalsArray[_winningProposalId].voteCount) {\r\n               _winningProposalId = p;\r\n          }\r\n       }\r\n       winningProposalID = _winningProposalId;\r\n       \r\n       workflowStatus = WorkflowStatus.VotesTallied;\r\n       emit WorkflowStatusChange(WorkflowStatus.VotingSessionEnded, WorkflowStatus.VotesTallied);\r\n    }\r\n}",
  "sourcePath": "/home/eden/alyra/projects/projet3/truffle/contracts/Voting.sol",
  "compiler": {
    "name": "solc",
    "version": "0.8.14+commit.80d49f37.Emscripten.clang"
  },
  "schemaVersion": "3.4.7",
  "updatedAt": "2022-07-16T15:01:26.990Z",
  "networkType": "ethereum",
  "devdoc": {
    "kind": "dev",
    "methods": {
      "owner()": {
        "details": "Returns the address of the current owner."
      },
      "renounceOwnership()": {
        "details": "Leaves the contract without owner. It will not be possible to call `onlyOwner` functions anymore. Can only be called by the current owner. NOTE: Renouncing ownership will leave the contract without an owner, thereby removing any functionality that is only available to the owner."
      },
      "transferOwnership(address)": {
        "details": "Transfers ownership of the contract to a new account (`newOwner`). Can only be called by the current owner."
      }
    },
    "version": 1
  },
  "userdoc": {
    "kind": "user",
    "methods": {},
    "version": 1
  }
}