{
  "_format": "hh-sol-artifact-1",
  "contractName": "NFT",
  "sourceName": "src/backend/contracts/NFT.sol",
  "abi": [
    {
      "inputs": [],
      "stateMutability": "nonpayable",
      "type": "constructor"
    },
    {
      "anonymous": false,
      "inputs": [
        {
          "indexed": true,
          "internalType": "address",
          "name": "owner",
          "type": "address"
        },
        {
          "indexed": true,
          "internalType": "address",
          "name": "approved",
          "type": "address"
        },
        {
          "indexed": true,
          "internalType": "uint256",
          "name": "tokenId",
          "type": "uint256"
        }
      ],
      "name": "Approval",
      "type": "event"
    },
    {
      "anonymous": false,
      "inputs": [
        {
          "indexed": true,
          "internalType": "address",
          "name": "owner",
          "type": "address"
        },
        {
          "indexed": true,
          "internalType": "address",
          "name": "operator",
          "type": "address"
        },
        {
          "indexed": false,
          "internalType": "bool",
          "name": "approved",
          "type": "bool"
        }
      ],
      "name": "ApprovalForAll",
      "type": "event"
    },
    {
      "anonymous": false,
      "inputs": [
        {
          "indexed": true,
          "internalType": "address",
          "name": "from",
          "type": "address"
        },
        {
          "indexed": true,
          "internalType": "uint256",
          "name": "tokenId",
          "type": "uint256"
        },
        {
          "indexed": false,
          "internalType": "string",
          "name": "uri",
          "type": "string"
        }
      ],
      "name": "Minted",
      "type": "event"
    },
    {
      "anonymous": false,
      "inputs": [
        {
          "indexed": true,
          "internalType": "address",
          "name": "previousOwner",
          "type": "address"
        },
        {
          "indexed": true,
          "internalType": "address",
          "name": "newOwner",
          "type": "address"
        }
      ],
      "name": "OwnershipTransferred",
      "type": "event"
    },
    {
      "anonymous": false,
      "inputs": [
        {
          "indexed": true,
          "internalType": "address",
          "name": "from",
          "type": "address"
        },
        {
          "indexed": true,
          "internalType": "address",
          "name": "to",
          "type": "address"
        },
        {
          "indexed": true,
          "internalType": "uint256",
          "name": "tokenId",
          "type": "uint256"
        }
      ],
      "name": "Transfer",
      "type": "event"
    },
    {
      "inputs": [
        {
          "internalType": "address",
          "name": "to",
          "type": "address"
        },
        {
          "internalType": "uint256",
          "name": "tokenId",
          "type": "uint256"
        }
      ],
      "name": "approve",
      "outputs": [],
      "stateMutability": "nonpayable",
      "type": "function"
    },
    {
      "inputs": [
        {
          "internalType": "address",
          "name": "owner",
          "type": "address"
        }
      ],
      "name": "balanceOf",
      "outputs": [
        {
          "internalType": "uint256",
          "name": "",
          "type": "uint256"
        }
      ],
      "stateMutability": "view",
      "type": "function"
    },
    {
      "inputs": [
        {
          "internalType": "uint256",
          "name": "tokenId",
          "type": "uint256"
        }
      ],
      "name": "getApproved",
      "outputs": [
        {
          "internalType": "address",
          "name": "",
          "type": "address"
        }
      ],
      "stateMutability": "view",
      "type": "function"
    },
    {
      "inputs": [
        {
          "internalType": "address",
          "name": "owner_",
          "type": "address"
        },
        {
          "internalType": "string",
          "name": "name_",
          "type": "string"
        },
        {
          "internalType": "string",
          "name": "symbol_",
          "type": "string"
        },
        {
          "internalType": "string",
          "name": "description_",
          "type": "string"
        },
        {
          "internalType": "contract VrfCategory",
          "name": "_addressVrfVategory",
          "type": "address"
        }
      ],
      "name": "init",
      "outputs": [],
      "stateMutability": "nonpayable",
      "type": "function"
    },
    {
      "inputs": [
        {
          "internalType": "address",
          "name": "owner",
          "type": "address"
        },
        {
          "internalType": "address",
          "name": "operator",
          "type": "address"
        }
      ],
      "name": "isApprovedForAll",
      "outputs": [
        {
          "internalType": "bool",
          "name": "",
          "type": "bool"
        }
      ],
      "stateMutability": "view",
      "type": "function"
    },
    {
      "inputs": [
        {
          "internalType": "string",
          "name": "_tokenURI",
          "type": "string"
        }
      ],
      "name": "mint",
      "outputs": [
        {
          "internalType": "uint256",
          "name": "",
          "type": "uint256"
        }
      ],
      "stateMutability": "nonpayable",
      "type": "function"
    },
    {
      "inputs": [],
      "name": "name",
      "outputs": [
        {
          "internalType": "string",
          "name": "",
          "type": "string"
        }
      ],
      "stateMutability": "view",
      "type": "function"
    },
    {
      "inputs": [],
      "name": "owner",
      "outputs": [
        {
          "internalType": "address",
          "name": "",
          "type": "address"
        }
      ],
      "stateMutability": "view",
      "type": "function"
    },
    {
      "inputs": [
        {
          "internalType": "uint256",
          "name": "tokenId",
          "type": "uint256"
        }
      ],
      "name": "ownerOf",
      "outputs": [
        {
          "internalType": "address",
          "name": "",
          "type": "address"
        }
      ],
      "stateMutability": "view",
      "type": "function"
    },
    {
      "inputs": [],
      "name": "renounceOwnership",
      "outputs": [],
      "stateMutability": "nonpayable",
      "type": "function"
    },
    {
      "inputs": [
        {
          "internalType": "address",
          "name": "from",
          "type": "address"
        },
        {
          "internalType": "address",
          "name": "to",
          "type": "address"
        },
        {
          "internalType": "uint256",
          "name": "tokenId",
          "type": "uint256"
        }
      ],
      "name": "safeTransferFrom",
      "outputs": [],
      "stateMutability": "nonpayable",
      "type": "function"
    },
    {
      "inputs": [
        {
          "internalType": "address",
          "name": "from",
          "type": "address"
        },
        {
          "internalType": "address",
          "name": "to",
          "type": "address"
        },
        {
          "internalType": "uint256",
          "name": "tokenId",
          "type": "uint256"
        },
        {
          "internalType": "bytes",
          "name": "data",
          "type": "bytes"
        }
      ],
      "name": "safeTransferFrom",
      "outputs": [],
      "stateMutability": "nonpayable",
      "type": "function"
    },
    {
      "inputs": [
        {
          "internalType": "address",
          "name": "operator",
          "type": "address"
        },
        {
          "internalType": "bool",
          "name": "approved",
          "type": "bool"
        }
      ],
      "name": "setApprovalForAll",
      "outputs": [],
      "stateMutability": "nonpayable",
      "type": "function"
    },
    {
      "inputs": [
        {
          "internalType": "bytes4",
          "name": "interfaceId",
          "type": "bytes4"
        }
      ],
      "name": "supportsInterface",
      "outputs": [
        {
          "internalType": "bool",
          "name": "",
          "type": "bool"
        }
      ],
      "stateMutability": "view",
      "type": "function"
    },
    {
      "inputs": [],
      "name": "symbol",
      "outputs": [
        {
          "internalType": "string",
          "name": "",
          "type": "string"
        }
      ],
      "stateMutability": "view",
      "type": "function"
    },
    {
      "inputs": [],
      "name": "tokenCount",
      "outputs": [
        {
          "internalType": "uint256",
          "name": "",
          "type": "uint256"
        }
      ],
      "stateMutability": "view",
      "type": "function"
    },
    {
      "inputs": [
        {
          "internalType": "uint256",
          "name": "tokenId",
          "type": "uint256"
        }
      ],
      "name": "tokenURI",
      "outputs": [
        {
          "internalType": "string",
          "name": "",
          "type": "string"
        }
      ],
      "stateMutability": "view",
      "type": "function"
    },
    {
      "inputs": [
        {
          "internalType": "address",
          "name": "from",
          "type": "address"
        },
        {
          "internalType": "address",
          "name": "to",
          "type": "address"
        },
        {
          "internalType": "uint256",
          "name": "tokenId",
          "type": "uint256"
        }
      ],
      "name": "transferFrom",
      "outputs": [],
      "stateMutability": "nonpayable",
      "type": "function"
    },
    {
      "inputs": [
        {
          "internalType": "address",
          "name": "newOwner",
          "type": "address"
        }
      ],
      "name": "transferOwnership",
      "outputs": [],
      "stateMutability": "nonpayable",
      "type": "function"
    }
  ],
  "bytecode": "0x60806040523480156200001157600080fd5b50604051806020016040528060008152506040518060200160405280600081525062000052620000466200007e60201b60201c565b6200008660201b60201c565b8160019081620000639190620003c4565b508060029081620000759190620003c4565b505050620004ab565b600033905090565b60008060009054906101000a900473ffffffffffffffffffffffffffffffffffffffff169050816000806101000a81548173ffffffffffffffffffffffffffffffffffffffff021916908373ffffffffffffffffffffffffffffffffffffffff1602179055508173ffffffffffffffffffffffffffffffffffffffff168173ffffffffffffffffffffffffffffffffffffffff167f8be0079c531659141344cd1fd0a4f28419497f9722a3daafe3b4186f6b6457e060405160405180910390a35050565b600081519050919050565b7f4e487b7100000000000000000000000000000000000000000000000000000000600052604160045260246000fd5b7f4e487b7100000000000000000000000000000000000000000000000000000000600052602260045260246000fd5b60006002820490506001821680620001cc57607f821691505b602082108103620001e257620001e162000184565b5b50919050565b60008190508160005260206000209050919050565b60006020601f8301049050919050565b600082821b905092915050565b6000600883026200024c7fffffffffffffffffffffffffffffffffffffffffffffffffffffffffffffffff826200020d565b6200025886836200020d565b95508019841693508086168417925050509392505050565b6000819050919050565b6000819050919050565b6000620002a56200029f620002998462000270565b6200027a565b62000270565b9050919050565b6000819050919050565b620002c18362000284565b620002d9620002d082620002ac565b8484546200021a565b825550505050565b600090565b620002f0620002e1565b620002fd818484620002b6565b505050565b5b81811015620003255762000319600082620002e6565b60018101905062000303565b5050565b601f82111562000374576200033e81620001e8565b6200034984620001fd565b8101602085101562000359578190505b620003716200036885620001fd565b83018262000302565b50505b505050565b600082821c905092915050565b6000620003996000198460080262000379565b1980831691505092915050565b6000620003b4838362000386565b9150826002028217905092915050565b620003cf826200014a565b67ffffffffffffffff811115620003eb57620003ea62000155565b5b620003f78254620001b3565b6200040482828562000329565b600060209050601f8311600181146200043c576000841562000427578287015190505b620004338582620003a6565b865550620004a3565b601f1984166200044c86620001e8565b60005b8281101562000476578489015182556001820191506020850194506020810190506200044f565b8683101562000496578489015162000492601f89168262000386565b8355505b6001600288020188555050505b505050505050565b61332580620004bb6000396000f3fe608060405234801561001057600080fd5b50600436106101215760003560e01c80637a049541116100ad578063b88d4fde11610071578063b88d4fde146102f4578063c87b56dd14610310578063d85d3d2714610340578063e985e9c514610370578063f2fde38b146103a057610121565b80637a049541146102625780638da5cb5b1461027e57806395d89b411461029c5780639f181b5e146102ba578063a22cb465146102d857610121565b806323b872dd116100f457806323b872dd146101c057806342842e0e146101dc5780636352211e146101f857806370a0823114610228578063715018a61461025857610121565b806301ffc9a71461012657806306fdde0314610156578063081812fc14610174578063095ea7b3146101a4575b600080fd5b610140600480360381019061013b9190611d19565b6103bc565b60405161014d9190611d61565b60405180910390f35b61015e61049e565b60405161016b9190611e15565b60405180910390f35b61018e60048036038101906101899190611e6d565b610530565b60405161019b9190611edb565b60405180910390f35b6101be60048036038101906101b99190611f22565b610576565b005b6101da60048036038101906101d59190611f62565b61068d565b005b6101f660048036038101906101f19190611f62565b6106ed565b005b610212600480360381019061020d9190611e6d565b61070d565b60405161021f9190611edb565b60405180910390f35b610242600480360381019061023d9190611fb5565b6107be565b60405161024f9190611ff1565b60405180910390f35b610260610875565b005b61027c6004803603810190610277919061217f565b610889565b005b61028661098a565b6040516102939190611edb565b60405180910390f35b6102a46109b3565b6040516102b19190611e15565b60405180910390f35b6102c2610a45565b6040516102cf9190611ff1565b60405180910390f35b6102f260048036038101906102ed919061227a565b610a56565b005b61030e6004803603810190610309919061235b565b610a6c565b005b61032a60048036038101906103259190611e6d565b610ace565b6040516103379190611e15565b60405180910390f35b61035a600480360381019061035591906123de565b610be0565b6040516103679190611ff1565b60405180910390f35b61038a60048036038101906103859190612427565b610c65565b6040516103979190611d61565b60405180910390f35b6103ba60048036038101906103b59190611fb5565b610cf9565b005b60007f80ac58cd000000000000000000000000000000000000000000000000000000007bffffffffffffffffffffffffffffffffffffffffffffffffffffffff1916827bffffffffffffffffffffffffffffffffffffffffffffffffffffffff1916148061048757507f5b5e139f000000000000000000000000000000000000000000000000000000007bffffffffffffffffffffffffffffffffffffffffffffffffffffffff1916827bffffffffffffffffffffffffffffffffffffffffffffffffffffffff1916145b80610497575061049682610d7c565b5b9050919050565b6060600980546104ad90612496565b80601f01602080910402602001604051908101604052809291908181526020018280546104d990612496565b80156105265780601f106104fb57610100808354040283529160200191610526565b820191906000526020600020905b81548152906001019060200180831161050957829003601f168201915b5050505050905090565b600061053b82610de6565b6005600083815260200190815260200160002060009054906101000a900473ffffffffffffffffffffffffffffffffffffffff169050919050565b60006105818261070d565b90508073ffffffffffffffffffffffffffffffffffffffff168373ffffffffffffffffffffffffffffffffffffffff16036105f1576040517f08c379a00000000000000000000000000000000000000000000000000000000081526004016105e890612539565b60405180910390fd5b8073ffffffffffffffffffffffffffffffffffffffff16610610610e31565b73ffffffffffffffffffffffffffffffffffffffff16148061063f575061063e81610639610e31565b610c65565b5b61067e576040517f08c379a0000000000000000000000000000000000000000000000000000000008152600401610675906125cb565b60405180910390fd5b6106888383610e39565b505050565b61069e610698610e31565b82610ef2565b6106dd576040517f08c379a00000000000000000000000000000000000000000000000000000000081526004016106d49061265d565b60405180910390fd5b6106e8838383610f87565b505050565b61070883838360405180602001604052806000815250610a6c565b505050565b6000806003600084815260200190815260200160002060009054906101000a900473ffffffffffffffffffffffffffffffffffffffff169050600073ffffffffffffffffffffffffffffffffffffffff168173ffffffffffffffffffffffffffffffffffffffff16036107b5576040517f08c379a00000000000000000000000000000000000000000000000000000000081526004016107ac906126c9565b60405180910390fd5b80915050919050565b60008073ffffffffffffffffffffffffffffffffffffffff168273ffffffffffffffffffffffffffffffffffffffff160361082e576040517f08c379a00000000000000000000000000000000000000000000000000000000081526004016108259061275b565b60405180910390fd5b600460008373ffffffffffffffffffffffffffffffffffffffff1673ffffffffffffffffffffffffffffffffffffffff168152602001908152602001600020549050919050565b61087d6111ed565b610887600061126b565b565b6108916111ed565b7fc5d2460186f7233c927e7db2dcc703c0e500b653ca82273b7bfad8045d85a47060096040516108c1919061281e565b604051809103902014610909576040517f08c379a000000000000000000000000000000000000000000000000000000000815260040161090090612881565b60405180910390fd5b61091285610cf9565b83600990816109219190612a4d565b5082600a90816109319190612a4d565b5081600b90816109419190612a4d565b5080600c60006101000a81548173ffffffffffffffffffffffffffffffffffffffff021916908373ffffffffffffffffffffffffffffffffffffffff1602179055505050505050565b60008060009054906101000a900473ffffffffffffffffffffffffffffffffffffffff16905090565b6060600a80546109c290612496565b80601f01602080910402602001604051908101604052809291908181526020018280546109ee90612496565b8015610a3b5780601f10610a1057610100808354040283529160200191610a3b565b820191906000526020600020905b815481529060010190602001808311610a1e57829003601f168201915b5050505050905090565b6000610a51600861132f565b905090565b610a68610a61610e31565b838361133d565b5050565b610a7d610a77610e31565b83610ef2565b610abc576040517f08c379a0000000000000000000000000000000000000000000000000000000008152600401610ab39061265d565b60405180910390fd5b610ac8848484846114a9565b50505050565b6060610ad982610de6565b6000600760008481526020019081526020016000208054610af990612496565b80601f0160208091040260200160405190810160405280929190818152602001828054610b2590612496565b8015610b725780601f10610b4757610100808354040283529160200191610b72565b820191906000526020600020905b815481529060010190602001808311610b5557829003601f168201915b505050505090506000610b83611505565b90506000815103610b98578192505050610bdb565b600082511115610bcd578082604051602001610bb5929190612b5b565b60405160208183030381529060405292505050610bdb565b610bd68461151c565b925050505b919050565b600080610bed600861132f565b9050610bf93382611584565b610c0381846115a2565b803373ffffffffffffffffffffffffffffffffffffffff167fe7cd4ce7f2a465edc730269a1305e8a48bad821e8fb7e152ec413829c01a53c485604051610c4a9190611e15565b60405180910390a3610c5c600861160f565b80915050919050565b6000600660008473ffffffffffffffffffffffffffffffffffffffff1673ffffffffffffffffffffffffffffffffffffffff16815260200190815260200160002060008373ffffffffffffffffffffffffffffffffffffffff1673ffffffffffffffffffffffffffffffffffffffff16815260200190815260200160002060009054906101000a900460ff16905092915050565b610d016111ed565b600073ffffffffffffffffffffffffffffffffffffffff168173ffffffffffffffffffffffffffffffffffffffff1603610d70576040517f08c379a0000000000000000000000000000000000000000000000000000000008152600401610d6790612bf1565b60405180910390fd5b610d798161126b565b50565b60007f01ffc9a7000000000000000000000000000000000000000000000000000000007bffffffffffffffffffffffffffffffffffffffffffffffffffffffff1916827bffffffffffffffffffffffffffffffffffffffffffffffffffffffff1916149050919050565b610def81611625565b610e2e576040517f08c379a0000000000000000000000000000000000000000000000000000000008152600401610e25906126c9565b60405180910390fd5b50565b600033905090565b816005600083815260200190815260200160002060006101000a81548173ffffffffffffffffffffffffffffffffffffffff021916908373ffffffffffffffffffffffffffffffffffffffff160217905550808273ffffffffffffffffffffffffffffffffffffffff16610eac8361070d565b73ffffffffffffffffffffffffffffffffffffffff167f8c5be1e5ebec7d5bd14f71427d1e84f3dd0314c0f7b2291e5b200ac8c7c3b92560405160405180910390a45050565b600080610efe8361070d565b90508073ffffffffffffffffffffffffffffffffffffffff168473ffffffffffffffffffffffffffffffffffffffff161480610f405750610f3f8185610c65565b5b80610f7e57508373ffffffffffffffffffffffffffffffffffffffff16610f6684610530565b73ffffffffffffffffffffffffffffffffffffffff16145b91505092915050565b8273ffffffffffffffffffffffffffffffffffffffff16610fa78261070d565b73ffffffffffffffffffffffffffffffffffffffff1614610ffd576040517f08c379a0000000000000000000000000000000000000000000000000000000008152600401610ff490612c83565b60405180910390fd5b600073ffffffffffffffffffffffffffffffffffffffff168273ffffffffffffffffffffffffffffffffffffffff160361106c576040517f08c379a000000000000000000000000000000000000000000000000000000000815260040161106390612d15565b60405180910390fd5b611077838383611691565b611082600082610e39565b6001600460008573ffffffffffffffffffffffffffffffffffffffff1673ffffffffffffffffffffffffffffffffffffffff16815260200190815260200160002060008282546110d29190612d64565b925050819055506001600460008473ffffffffffffffffffffffffffffffffffffffff1673ffffffffffffffffffffffffffffffffffffffff16815260200190815260200160002060008282546111299190612d98565b92505081905550816003600083815260200190815260200160002060006101000a81548173ffffffffffffffffffffffffffffffffffffffff021916908373ffffffffffffffffffffffffffffffffffffffff160217905550808273ffffffffffffffffffffffffffffffffffffffff168473ffffffffffffffffffffffffffffffffffffffff167fddf252ad1be2c89b69c2b068fc378daa952ba7f163c4a11628f55a4df523b3ef60405160405180910390a46111e883838361176a565b505050565b6111f5610e31565b73ffffffffffffffffffffffffffffffffffffffff1661121361098a565b73ffffffffffffffffffffffffffffffffffffffff1614611269576040517f08c379a000000000000000000000000000000000000000000000000000000000815260040161126090612e3a565b60405180910390fd5b565b60008060009054906101000a900473ffffffffffffffffffffffffffffffffffffffff169050816000806101000a81548173ffffffffffffffffffffffffffffffffffffffff021916908373ffffffffffffffffffffffffffffffffffffffff1602179055508173ffffffffffffffffffffffffffffffffffffffff168173ffffffffffffffffffffffffffffffffffffffff167f8be0079c531659141344cd1fd0a4f28419497f9722a3daafe3b4186f6b6457e060405160405180910390a35050565b600081600001549050919050565b8173ffffffffffffffffffffffffffffffffffffffff168373ffffffffffffffffffffffffffffffffffffffff16036113ab576040517f08c379a00000000000000000000000000000000000000000000000000000000081526004016113a290612ea6565b60405180910390fd5b80600660008573ffffffffffffffffffffffffffffffffffffffff1673ffffffffffffffffffffffffffffffffffffffff16815260200190815260200160002060008473ffffffffffffffffffffffffffffffffffffffff1673ffffffffffffffffffffffffffffffffffffffff16815260200190815260200160002060006101000a81548160ff0219169083151502179055508173ffffffffffffffffffffffffffffffffffffffff168373ffffffffffffffffffffffffffffffffffffffff167f17307eab39ab6107e8899845ad3d59bd9653f200f220920489ca2b5937696c318360405161149c9190611d61565b60405180910390a3505050565b6114b4848484610f87565b6114c08484848461176f565b6114ff576040517f08c379a00000000000000000000000000000000000000000000000000000000081526004016114f690612f38565b60405180910390fd5b50505050565b606060405180602001604052806000815250905090565b606061152782610de6565b6000611531611505565b90506000815111611551576040518060200160405280600081525061157c565b8061155b846118f6565b60405160200161156c929190612b5b565b6040516020818303038152906040525b915050919050565b61159e828260405180602001604052806000815250611a56565b5050565b6115ab82611625565b6115ea576040517f08c379a00000000000000000000000000000000000000000000000000000000081526004016115e190612fca565b60405180910390fd5b8060076000848152602001908152602001600020908161160a9190612a4d565b505050565b6001816000016000828254019250508190555050565b60008073ffffffffffffffffffffffffffffffffffffffff166003600084815260200190815260200160002060009054906101000a900473ffffffffffffffffffffffffffffffffffffffff1673ffffffffffffffffffffffffffffffffffffffff1614159050919050565b600073ffffffffffffffffffffffffffffffffffffffff168373ffffffffffffffffffffffffffffffffffffffff160361176557600c60009054906101000a900473ffffffffffffffffffffffffffffffffffffffff1673ffffffffffffffffffffffffffffffffffffffff1663adbfa951826040518263ffffffff1660e01b81526004016117209190611ff1565b6020604051808303816000875af115801561173f573d6000803e3d6000fd5b505050506040513d601f19601f820116820180604052508101906117639190612fff565b505b505050565b505050565b60006117908473ffffffffffffffffffffffffffffffffffffffff16611ab1565b156118e9578373ffffffffffffffffffffffffffffffffffffffff1663150b7a026117b9610e31565b8786866040518563ffffffff1660e01b81526004016117db9493929190613081565b6020604051808303816000875af192505050801561181757506040513d601f19601f8201168201806040525081019061181491906130e2565b60015b611899573d8060008114611847576040519150601f19603f3d011682016040523d82523d6000602084013e61184c565b606091505b506000815103611891576040517f08c379a000000000000000000000000000000000000000000000000000000000815260040161188890612f38565b60405180910390fd5b805181602001fd5b63150b7a0260e01b7bffffffffffffffffffffffffffffffffffffffffffffffffffffffff1916817bffffffffffffffffffffffffffffffffffffffffffffffffffffffff1916149150506118ee565b600190505b949350505050565b60606000820361193d576040518060400160405280600181526020017f30000000000000000000000000000000000000000000000000000000000000008152509050611a51565b600082905060005b6000821461196f5780806119589061310f565b915050600a826119689190613186565b9150611945565b60008167ffffffffffffffff81111561198b5761198a612016565b5b6040519080825280601f01601f1916602001820160405280156119bd5781602001600182028036833780820191505090505b5090505b60008514611a4a576001826119d69190612d64565b9150600a856119e591906131b7565b60306119f19190612d98565b60f81b818381518110611a0757611a066131e8565b5b60200101907effffffffffffffffffffffffffffffffffffffffffffffffffffffffffffff1916908160001a905350600a85611a439190613186565b94506119c1565b8093505050505b919050565b611a608383611ad4565b611a6d600084848461176f565b611aac576040517f08c379a0000000000000000000000000000000000000000000000000000000008152600401611aa390612f38565b60405180910390fd5b505050565b6000808273ffffffffffffffffffffffffffffffffffffffff163b119050919050565b600073ffffffffffffffffffffffffffffffffffffffff168273ffffffffffffffffffffffffffffffffffffffff1603611b43576040517f08c379a0000000000000000000000000000000000000000000000000000000008152600401611b3a90613263565b60405180910390fd5b611b4c81611625565b15611b8c576040517f08c379a0000000000000000000000000000000000000000000000000000000008152600401611b83906132cf565b60405180910390fd5b611b9860008383611691565b6001600460008473ffffffffffffffffffffffffffffffffffffffff1673ffffffffffffffffffffffffffffffffffffffff1681526020019081526020016000206000828254611be89190612d98565b92505081905550816003600083815260200190815260200160002060006101000a81548173ffffffffffffffffffffffffffffffffffffffff021916908373ffffffffffffffffffffffffffffffffffffffff160217905550808273ffffffffffffffffffffffffffffffffffffffff16600073ffffffffffffffffffffffffffffffffffffffff167fddf252ad1be2c89b69c2b068fc378daa952ba7f163c4a11628f55a4df523b3ef60405160405180910390a4611ca96000838361176a565b5050565b6000604051905090565b600080fd5b600080fd5b60007fffffffff0000000000000000000000000000000000000000000000000000000082169050919050565b611cf681611cc1565b8114611d0157600080fd5b50565b600081359050611d1381611ced565b92915050565b600060208284031215611d2f57611d2e611cb7565b5b6000611d3d84828501611d04565b91505092915050565b60008115159050919050565b611d5b81611d46565b82525050565b6000602082019050611d766000830184611d52565b92915050565b600081519050919050565b600082825260208201905092915050565b60005b83811015611db6578082015181840152602081019050611d9b565b83811115611dc5576000848401525b50505050565b6000601f19601f8301169050919050565b6000611de782611d7c565b611df18185611d87565b9350611e01818560208601611d98565b611e0a81611dcb565b840191505092915050565b60006020820190508181036000830152611e2f8184611ddc565b905092915050565b6000819050919050565b611e4a81611e37565b8114611e5557600080fd5b50565b600081359050611e6781611e41565b92915050565b600060208284031215611e8357611e82611cb7565b5b6000611e9184828501611e58565b91505092915050565b600073ffffffffffffffffffffffffffffffffffffffff82169050919050565b6000611ec582611e9a565b9050919050565b611ed581611eba565b82525050565b6000602082019050611ef06000830184611ecc565b92915050565b611eff81611eba565b8114611f0a57600080fd5b50565b600081359050611f1c81611ef6565b92915050565b60008060408385031215611f3957611f38611cb7565b5b6000611f4785828601611f0d565b9250506020611f5885828601611e58565b9150509250929050565b600080600060608486031215611f7b57611f7a611cb7565b5b6000611f8986828701611f0d565b9350506020611f9a86828701611f0d565b9250506040611fab86828701611e58565b9150509250925092565b600060208284031215611fcb57611fca611cb7565b5b6000611fd984828501611f0d565b91505092915050565b611feb81611e37565b82525050565b60006020820190506120066000830184611fe2565b92915050565b600080fd5b600080fd5b7f4e487b7100000000000000000000000000000000000000000000000000000000600052604160045260246000fd5b61204e82611dcb565b810181811067ffffffffffffffff8211171561206d5761206c612016565b5b80604052505050565b6000612080611cad565b905061208c8282612045565b919050565b600067ffffffffffffffff8211156120ac576120ab612016565b5b6120b582611dcb565b9050602081019050919050565b82818337600083830152505050565b60006120e46120df84612091565b612076565b905082815260208101848484011115612100576120ff612011565b5b61210b8482856120c2565b509392505050565b600082601f8301126121285761212761200c565b5b81356121388482602086016120d1565b91505092915050565b600061214c82611eba565b9050919050565b61215c81612141565b811461216757600080fd5b50565b60008135905061217981612153565b92915050565b600080600080600060a0868803121561219b5761219a611cb7565b5b60006121a988828901611f0d565b955050602086013567ffffffffffffffff8111156121ca576121c9611cbc565b5b6121d688828901612113565b945050604086013567ffffffffffffffff8111156121f7576121f6611cbc565b5b61220388828901612113565b935050606086013567ffffffffffffffff81111561222457612223611cbc565b5b61223088828901612113565b92505060806122418882890161216a565b9150509295509295909350565b61225781611d46565b811461226257600080fd5b50565b6000813590506122748161224e565b92915050565b6000806040838503121561229157612290611cb7565b5b600061229f85828601611f0d565b92505060206122b085828601612265565b9150509250929050565b600067ffffffffffffffff8211156122d5576122d4612016565b5b6122de82611dcb565b9050602081019050919050565b60006122fe6122f9846122ba565b612076565b90508281526020810184848401111561231a57612319612011565b5b6123258482856120c2565b509392505050565b600082601f8301126123425761234161200c565b5b81356123528482602086016122eb565b91505092915050565b6000806000806080858703121561237557612374611cb7565b5b600061238387828801611f0d565b945050602061239487828801611f0d565b93505060406123a587828801611e58565b925050606085013567ffffffffffffffff8111156123c6576123c5611cbc565b5b6123d28782880161232d565b91505092959194509250565b6000602082840312156123f4576123f3611cb7565b5b600082013567ffffffffffffffff81111561241257612411611cbc565b5b61241e84828501612113565b91505092915050565b6000806040838503121561243e5761243d611cb7565b5b600061244c85828601611f0d565b925050602061245d85828601611f0d565b9150509250929050565b7f4e487b7100000000000000000000000000000000000000000000000000000000600052602260045260246000fd5b600060028204905060018216806124ae57607f821691505b6020821081036124c1576124c0612467565b5b50919050565b7f4552433732313a20617070726f76616c20746f2063757272656e74206f776e6560008201527f7200000000000000000000000000000000000000000000000000000000000000602082015250565b6000612523602183611d87565b915061252e826124c7565b604082019050919050565b6000602082019050818103600083015261255281612516565b9050919050565b7f4552433732313a20617070726f76652063616c6c6572206973206e6f7420746f60008201527f6b656e206f776e6572206e6f7220617070726f76656420666f7220616c6c0000602082015250565b60006125b5603e83611d87565b91506125c082612559565b604082019050919050565b600060208201905081810360008301526125e4816125a8565b9050919050565b7f4552433732313a2063616c6c6572206973206e6f7420746f6b656e206f776e6560008201527f72206e6f7220617070726f766564000000000000000000000000000000000000602082015250565b6000612647602e83611d87565b9150612652826125eb565b604082019050919050565b600060208201905081810360008301526126768161263a565b9050919050565b7f4552433732313a20696e76616c696420746f6b656e2049440000000000000000600082015250565b60006126b3601883611d87565b91506126be8261267d565b602082019050919050565b600060208201905081810360008301526126e2816126a6565b9050919050565b7f4552433732313a2061646472657373207a65726f206973206e6f74206120766160008201527f6c6964206f776e65720000000000000000000000000000000000000000000000602082015250565b6000612745602983611d87565b9150612750826126e9565b604082019050919050565b6000602082019050818103600083015261277481612738565b9050919050565b600081905092915050565b60008190508160005260206000209050919050565b600081546127a881612496565b6127b2818661277b565b945060018216600081146127cd57600181146127e257612815565b60ff1983168652811515820286019350612815565b6127eb85612786565b60005b8381101561280d578154818901526001820191506020810190506127ee565b838801955050505b50505092915050565b600061282a828461279b565b915081905092915050565b7f416c726561647920696e697469616c697a656400000000000000000000000000600082015250565b600061286b601383611d87565b915061287682612835565b602082019050919050565b6000602082019050818103600083015261289a8161285e565b9050919050565b60008190508160005260206000209050919050565b60006020601f8301049050919050565b600082821b905092915050565b6000600883026129037fffffffffffffffffffffffffffffffffffffffffffffffffffffffffffffffff826128c6565b61290d86836128c6565b95508019841693508086168417925050509392505050565b6000819050919050565b600061294a61294561294084611e37565b612925565b611e37565b9050919050565b6000819050919050565b6129648361292f565b61297861297082612951565b8484546128d3565b825550505050565b600090565b61298d612980565b61299881848461295b565b505050565b5b818110156129bc576129b1600082612985565b60018101905061299e565b5050565b601f821115612a01576129d2816128a1565b6129db846128b6565b810160208510156129ea578190505b6129fe6129f6856128b6565b83018261299d565b50505b505050565b600082821c905092915050565b6000612a2460001984600802612a06565b1980831691505092915050565b6000612a3d8383612a13565b9150826002028217905092915050565b612a5682611d7c565b67ffffffffffffffff811115612a6f57612a6e612016565b5b612a798254612496565b612a848282856129c0565b600060209050601f831160018114612ab75760008415612aa5578287015190505b612aaf8582612a31565b865550612b17565b601f198416612ac5866128a1565b60005b82811015612aed57848901518255600182019150602085019450602081019050612ac8565b86831015612b0a5784890151612b06601f891682612a13565b8355505b6001600288020188555050505b505050505050565b600081905092915050565b6000612b3582611d7c565b612b3f8185612b1f565b9350612b4f818560208601611d98565b80840191505092915050565b6000612b678285612b2a565b9150612b738284612b2a565b91508190509392505050565b7f4f776e61626c653a206e6577206f776e657220697320746865207a65726f206160008201527f6464726573730000000000000000000000000000000000000000000000000000602082015250565b6000612bdb602683611d87565b9150612be682612b7f565b604082019050919050565b60006020820190508181036000830152612c0a81612bce565b9050919050565b7f4552433732313a207472616e736665722066726f6d20696e636f72726563742060008201527f6f776e6572000000000000000000000000000000000000000000000000000000602082015250565b6000612c6d602583611d87565b9150612c7882612c11565b604082019050919050565b60006020820190508181036000830152612c9c81612c60565b9050919050565b7f4552433732313a207472616e7366657220746f20746865207a65726f2061646460008201527f7265737300000000000000000000000000000000000000000000000000000000602082015250565b6000612cff602483611d87565b9150612d0a82612ca3565b604082019050919050565b60006020820190508181036000830152612d2e81612cf2565b9050919050565b7f4e487b7100000000000000000000000000000000000000000000000000000000600052601160045260246000fd5b6000612d6f82611e37565b9150612d7a83611e37565b925082821015612d8d57612d8c612d35565b5b828203905092915050565b6000612da382611e37565b9150612dae83611e37565b9250827fffffffffffffffffffffffffffffffffffffffffffffffffffffffffffffffff03821115612de357612de2612d35565b5b828201905092915050565b7f4f776e61626c653a2063616c6c6572206973206e6f7420746865206f776e6572600082015250565b6000612e24602083611d87565b9150612e2f82612dee565b602082019050919050565b60006020820190508181036000830152612e5381612e17565b9050919050565b7f4552433732313a20617070726f766520746f2063616c6c657200000000000000600082015250565b6000612e90601983611d87565b9150612e9b82612e5a565b602082019050919050565b60006020820190508181036000830152612ebf81612e83565b9050919050565b7f4552433732313a207472616e7366657220746f206e6f6e20455243373231526560008201527f63656976657220696d706c656d656e7465720000000000000000000000000000602082015250565b6000612f22603283611d87565b9150612f2d82612ec6565b604082019050919050565b60006020820190508181036000830152612f5181612f15565b9050919050565b7f45524337323155524953746f726167653a2055524920736574206f66206e6f6e60008201527f6578697374656e7420746f6b656e000000000000000000000000000000000000602082015250565b6000612fb4602e83611d87565b9150612fbf82612f58565b604082019050919050565b60006020820190508181036000830152612fe381612fa7565b9050919050565b600081519050612ff981611e41565b92915050565b60006020828403121561301557613014611cb7565b5b600061302384828501612fea565b91505092915050565b600081519050919050565b600082825260208201905092915050565b60006130538261302c565b61305d8185613037565b935061306d818560208601611d98565b61307681611dcb565b840191505092915050565b60006080820190506130966000830187611ecc565b6130a36020830186611ecc565b6130b06040830185611fe2565b81810360608301526130c28184613048565b905095945050505050565b6000815190506130dc81611ced565b92915050565b6000602082840312156130f8576130f7611cb7565b5b6000613106848285016130cd565b91505092915050565b600061311a82611e37565b91507fffffffffffffffffffffffffffffffffffffffffffffffffffffffffffffffff820361314c5761314b612d35565b5b600182019050919050565b7f4e487b7100000000000000000000000000000000000000000000000000000000600052601260045260246000fd5b600061319182611e37565b915061319c83611e37565b9250826131ac576131ab613157565b5b828204905092915050565b60006131c282611e37565b91506131cd83611e37565b9250826131dd576131dc613157565b5b828206905092915050565b7f4e487b7100000000000000000000000000000000000000000000000000000000600052603260045260246000fd5b7f4552433732313a206d696e7420746f20746865207a65726f2061646472657373600082015250565b600061324d602083611d87565b915061325882613217565b602082019050919050565b6000602082019050818103600083015261327c81613240565b9050919050565b7f4552433732313a20746f6b656e20616c7265616479206d696e74656400000000600082015250565b60006132b9601c83611d87565b91506132c482613283565b602082019050919050565b600060208201905081810360008301526132e8816132ac565b905091905056fea26469706673582212201f53e18d70b26929a576913b4c14af81e19a0a76b5232052452eeac243d8614f64736f6c634300080f0033",
  "linkReferences": {},
  "deployedLinkReferences": {}
}