{
  "_format": "hh-sol-artifact-1",
  "contractName": "VrfCategory",
  "sourceName": "src/backend/contracts/VrfCategory.sol",
  "abi": [
    {
      "inputs": [
        {
          "internalType": "uint64",
          "name": "subscriptionId",
          "type": "uint64"
        },
        {
          "internalType": "address",
          "name": "vrfCoordinator",
          "type": "address"
        }
      ],
      "stateMutability": "nonpayable",
      "type": "constructor"
    },
    {
      "inputs": [
        {
          "internalType": "address",
          "name": "have",
          "type": "address"
        },
        {
          "internalType": "address",
          "name": "want",
          "type": "address"
        }
      ],
      "name": "OnlyCoordinatorCanFulfill",
      "type": "error"
    },
    {
      "anonymous": false,
      "inputs": [
        {
          "indexed": true,
          "internalType": "address",
          "name": "previousOwner",
          "type": "address"
        },
        {
          "indexed": true,
          "internalType": "address",
          "name": "newOwner",
          "type": "address"
        }
      ],
      "name": "OwnershipTransferred",
      "type": "event"
    },
    {
      "anonymous": false,
      "inputs": [
        {
          "indexed": true,
          "internalType": "uint256",
          "name": "requestId",
          "type": "uint256"
        },
        {
          "indexed": true,
          "internalType": "uint256",
          "name": "tokenNftId",
          "type": "uint256"
        }
      ],
      "name": "VrfCalled",
      "type": "event"
    },
    {
      "anonymous": false,
      "inputs": [
        {
          "indexed": true,
          "internalType": "uint256",
          "name": "requestId",
          "type": "uint256"
        },
        {
          "indexed": true,
          "internalType": "uint256",
          "name": "tokenNftId",
          "type": "uint256"
        },
        {
          "indexed": true,
          "internalType": "uint256",
          "name": "result",
          "type": "uint256"
        }
      ],
      "name": "VrfSuccess",
      "type": "event"
    },
    {
      "inputs": [
        {
          "internalType": "uint256",
          "name": "tokenNftId",
          "type": "uint256"
        }
      ],
      "name": "category",
      "outputs": [
        {
          "internalType": "string",
          "name": "",
          "type": "string"
        }
      ],
      "stateMutability": "view",
      "type": "function"
    },
    {
      "inputs": [],
      "name": "owner",
      "outputs": [
        {
          "internalType": "address",
          "name": "",
          "type": "address"
        }
      ],
      "stateMutability": "view",
      "type": "function"
    },
    {
      "inputs": [
        {
          "internalType": "uint256",
          "name": "requestId",
          "type": "uint256"
        },
        {
          "internalType": "uint256[]",
          "name": "randomWords",
          "type": "uint256[]"
        }
      ],
      "name": "rawFulfillRandomWords",
      "outputs": [],
      "stateMutability": "nonpayable",
      "type": "function"
    },
    {
      "inputs": [],
      "name": "renounceOwnership",
      "outputs": [],
      "stateMutability": "nonpayable",
      "type": "function"
    },
    {
      "inputs": [
        {
          "internalType": "uint256",
          "name": "tokenNftId",
          "type": "uint256"
        }
      ],
      "name": "requestRandomnessForTokenId",
      "outputs": [
        {
          "internalType": "uint256",
          "name": "requestId",
          "type": "uint256"
        }
      ],
      "stateMutability": "nonpayable",
      "type": "function"
    },
    {
      "inputs": [
        {
          "internalType": "address",
          "name": "newOwner",
          "type": "address"
        }
      ],
      "name": "transferOwnership",
      "outputs": [],
      "stateMutability": "nonpayable",
      "type": "function"
    }
  ],
  "bytecode": "0x60a06040527fd89b2bf150e3b9e13446986e571fb9cab24b13cea0a43ea20a6049a85cc807cc60001b600255619c40600360006101000a81548163ffffffff021916908363ffffffff16021790555060038060046101000a81548161ffff021916908361ffff1602179055506001600360066101000a81548163ffffffff021916908363ffffffff1602179055503480156200009a57600080fd5b5060405162001564380380620015648339818101604052810190620000c0919062000303565b80620000e1620000d56200018860201b60201c565b6200019060201b60201c565b8073ffffffffffffffffffffffffffffffffffffffff1660808173ffffffffffffffffffffffffffffffffffffffff16815250505080600160006101000a81548173ffffffffffffffffffffffffffffffffffffffff021916908373ffffffffffffffffffffffffffffffffffffffff16021790555081600160146101000a81548167ffffffffffffffff021916908367ffffffffffffffff16021790555050506200034a565b600033905090565b60008060009054906101000a900473ffffffffffffffffffffffffffffffffffffffff169050816000806101000a81548173ffffffffffffffffffffffffffffffffffffffff021916908373ffffffffffffffffffffffffffffffffffffffff1602179055508173ffffffffffffffffffffffffffffffffffffffff168173ffffffffffffffffffffffffffffffffffffffff167f8be0079c531659141344cd1fd0a4f28419497f9722a3daafe3b4186f6b6457e060405160405180910390a35050565b600080fd5b600067ffffffffffffffff82169050919050565b620002788162000259565b81146200028457600080fd5b50565b60008151905062000298816200026d565b92915050565b600073ffffffffffffffffffffffffffffffffffffffff82169050919050565b6000620002cb826200029e565b9050919050565b620002dd81620002be565b8114620002e957600080fd5b50565b600081519050620002fd81620002d2565b92915050565b600080604083850312156200031d576200031c62000254565b5b60006200032d8582860162000287565b92505060206200034085828601620002ec565b9150509250929050565b6080516111f76200036d60003960008181610129015261017d01526111f76000f3fe608060405234801561001057600080fd5b50600436106100625760003560e01c80631fe543e314610067578063253eca1f14610083578063715018a6146100b35780638da5cb5b146100bd578063adbfa951146100db578063f2fde38b1461010b575b600080fd5b610081600480360381019061007c9190610af3565b610127565b005b61009d60048036038101906100989190610b4f565b6101e7565b6040516100aa9190610c04565b60405180910390f35b6100bb6102b9565b005b6100c56102cd565b6040516100d29190610c67565b60405180910390f35b6100f560048036038101906100f09190610b4f565b6102f6565b6040516101029190610c91565b60405180910390f35b61012560048036038101906101209190610cd8565b6104a6565b005b7f000000000000000000000000000000000000000000000000000000000000000073ffffffffffffffffffffffffffffffffffffffff163373ffffffffffffffffffffffffffffffffffffffff16146101d957337f00000000000000000000000000000000000000000000000000000000000000006040517f1cf993f40000000000000000000000000000000000000000000000000000000081526004016101d0929190610d05565b60405180910390fd5b6101e38282610529565b5050565b6060600060056000848152602001908152602001600020540361023f576040517f08c379a000000000000000000000000000000000000000000000000000000000815260040161023690610d7a565b60405180910390fd5b6101f4600560008481526020019081526020016000205403610296576040517f08c379a000000000000000000000000000000000000000000000000000000000815260040161028d90610de6565b60405180910390fd5b6102b26005600084815260200190815260200160002054610612565b9050919050565b6102c1610741565b6102cb60006107bf565b565b60008060009054906101000a900473ffffffffffffffffffffffffffffffffffffffff16905090565b60008060056000848152602001908152602001600020541461034d576040517f08c379a000000000000000000000000000000000000000000000000000000000815260040161034490610e52565b60405180910390fd5b600160009054906101000a900473ffffffffffffffffffffffffffffffffffffffff1673ffffffffffffffffffffffffffffffffffffffff16635d3b1d30600254600160149054906101000a900467ffffffffffffffff16600360049054906101000a900461ffff16600360009054906101000a900463ffffffff16600360069054906101000a900463ffffffff166040518663ffffffff1660e01b81526004016103fc959493929190610eea565b6020604051808303816000875af115801561041b573d6000803e3d6000fd5b505050506040513d601f19601f8201168201806040525081019061043f9190610f52565b90508160046000838152602001908152602001600020819055506101f4600560008481526020019081526020016000208190555081817f3db237f4ce9585b8c0886947127a3b6ee3e6012519befb01bc16bbddf8db39bb60405160405180910390a3919050565b6104ae610741565b600073ffffffffffffffffffffffffffffffffffffffff168173ffffffffffffffffffffffffffffffffffffffff160361051d576040517f08c379a000000000000000000000000000000000000000000000000000000000815260040161051490610ff1565b60405180910390fd5b610526816107bf565b50565b6105686040518060400160405280601f81526020017f66756c66696c6c52616e646f6d576f726473207265717565737449642025730081525083610883565b6000600160648360008151811061058257610581611011565b5b6020026020010151610594919061106f565b61059e91906110cf565b905080600560006004600087815260200190815260200160002054815260200190815260200160002081905550806004600085815260200190815260200160002054847f806f0d42617af95dd48d74f3a1ad7700b7d5450b7d5ec24f4e25a5f0380e956760405160405180910390a4505050565b606060006040518060400160405280600681526020017f42726f6e7a650000000000000000000000000000000000000000000000000000815250905060328311801561065f575060508311155b156106a1576040518060400160405280600681526020017f53696c76657200000000000000000000000000000000000000000000000000008152509050610738565b6050831180156106b2575060628311155b156106f4576040518060400160405280600481526020017f476f6c64000000000000000000000000000000000000000000000000000000008152509050610737565b6062831115610736576040518060400160405280600981526020017f506c6174696e69756d000000000000000000000000000000000000000000000081525090505b5b5b80915050919050565b61074961091f565b73ffffffffffffffffffffffffffffffffffffffff166107676102cd565b73ffffffffffffffffffffffffffffffffffffffff16146107bd576040517f08c379a00000000000000000000000000000000000000000000000000000000081526004016107b490611171565b60405180910390fd5b565b60008060009054906101000a900473ffffffffffffffffffffffffffffffffffffffff169050816000806101000a81548173ffffffffffffffffffffffffffffffffffffffff021916908373ffffffffffffffffffffffffffffffffffffffff1602179055508173ffffffffffffffffffffffffffffffffffffffff168173ffffffffffffffffffffffffffffffffffffffff167f8be0079c531659141344cd1fd0a4f28419497f9722a3daafe3b4186f6b6457e060405160405180910390a35050565b61091b8282604051602401610899929190611191565b6040516020818303038152906040527f9710a9d0000000000000000000000000000000000000000000000000000000007bffffffffffffffffffffffffffffffffffffffffffffffffffffffff19166020820180517bffffffffffffffffffffffffffffffffffffffffffffffffffffffff8381831617835250505050610927565b5050565b600033905090565b60008151905060006a636f6e736f6c652e6c6f679050602083016000808483855afa5050505050565b6000604051905090565b600080fd5b600080fd5b6000819050919050565b61097781610964565b811461098257600080fd5b50565b6000813590506109948161096e565b92915050565b600080fd5b6000601f19601f8301169050919050565b7f4e487b7100000000000000000000000000000000000000000000000000000000600052604160045260246000fd5b6109e88261099f565b810181811067ffffffffffffffff82111715610a0757610a066109b0565b5b80604052505050565b6000610a1a610950565b9050610a2682826109df565b919050565b600067ffffffffffffffff821115610a4657610a456109b0565b5b602082029050602081019050919050565b600080fd5b6000610a6f610a6a84610a2b565b610a10565b90508083825260208201905060208402830185811115610a9257610a91610a57565b5b835b81811015610abb5780610aa78882610985565b845260208401935050602081019050610a94565b5050509392505050565b600082601f830112610ada57610ad961099a565b5b8135610aea848260208601610a5c565b91505092915050565b60008060408385031215610b0a57610b0961095a565b5b6000610b1885828601610985565b925050602083013567ffffffffffffffff811115610b3957610b3861095f565b5b610b4585828601610ac5565b9150509250929050565b600060208284031215610b6557610b6461095a565b5b6000610b7384828501610985565b91505092915050565b600081519050919050565b600082825260208201905092915050565b60005b83811015610bb6578082015181840152602081019050610b9b565b83811115610bc5576000848401525b50505050565b6000610bd682610b7c565b610be08185610b87565b9350610bf0818560208601610b98565b610bf98161099f565b840191505092915050565b60006020820190508181036000830152610c1e8184610bcb565b905092915050565b600073ffffffffffffffffffffffffffffffffffffffff82169050919050565b6000610c5182610c26565b9050919050565b610c6181610c46565b82525050565b6000602082019050610c7c6000830184610c58565b92915050565b610c8b81610964565b82525050565b6000602082019050610ca66000830184610c82565b92915050565b610cb581610c46565b8114610cc057600080fd5b50565b600081359050610cd281610cac565b92915050565b600060208284031215610cee57610ced61095a565b5b6000610cfc84828501610cc3565b91505092915050565b6000604082019050610d1a6000830185610c58565b610d276020830184610c58565b9392505050565b7f43617465676f7279204e4654206e6f742063616c63756c617465640000000000600082015250565b6000610d64601b83610b87565b9150610d6f82610d2e565b602082019050919050565b60006020820190508181036000830152610d9381610d57565b9050919050565b7f56726620696e2070726f67726573730000000000000000000000000000000000600082015250565b6000610dd0600f83610b87565b9150610ddb82610d9a565b602082019050919050565b60006020820190508181036000830152610dff81610dc3565b9050919050565b7f416c72656164792063616c6c6564000000000000000000000000000000000000600082015250565b6000610e3c600e83610b87565b9150610e4782610e06565b602082019050919050565b60006020820190508181036000830152610e6b81610e2f565b9050919050565b6000819050919050565b610e8581610e72565b82525050565b600067ffffffffffffffff82169050919050565b610ea881610e8b565b82525050565b600061ffff82169050919050565b610ec581610eae565b82525050565b600063ffffffff82169050919050565b610ee481610ecb565b82525050565b600060a082019050610eff6000830188610e7c565b610f0c6020830187610e9f565b610f196040830186610ebc565b610f266060830185610edb565b610f336080830184610edb565b9695505050505050565b600081519050610f4c8161096e565b92915050565b600060208284031215610f6857610f6761095a565b5b6000610f7684828501610f3d565b91505092915050565b7f4f776e61626c653a206e6577206f776e657220697320746865207a65726f206160008201527f6464726573730000000000000000000000000000000000000000000000000000602082015250565b6000610fdb602683610b87565b9150610fe682610f7f565b604082019050919050565b6000602082019050818103600083015261100a81610fce565b9050919050565b7f4e487b7100000000000000000000000000000000000000000000000000000000600052603260045260246000fd5b7f4e487b7100000000000000000000000000000000000000000000000000000000600052601260045260246000fd5b600061107a82610964565b915061108583610964565b92508261109557611094611040565b5b828206905092915050565b7f4e487b7100000000000000000000000000000000000000000000000000000000600052601160045260246000fd5b60006110da82610964565b91506110e583610964565b9250827fffffffffffffffffffffffffffffffffffffffffffffffffffffffffffffffff0382111561111a576111196110a0565b5b828201905092915050565b7f4f776e61626c653a2063616c6c6572206973206e6f7420746865206f776e6572600082015250565b600061115b602083610b87565b915061116682611125565b602082019050919050565b6000602082019050818103600083015261118a8161114e565b9050919050565b600060408201905081810360008301526111ab8185610bcb565b90506111ba6020830184610c82565b939250505056fea26469706673582212203d8c3d544ace8ca271aa14548e1e57191ef62b103b602270d15b750b2f0992ba64736f6c634300080f0033",
  "linkReferences": {},
  "deployedLinkReferences": {}
}